:100000000C942A000C943F000C943F000C943F0089
:100010000C943F000C943F000C943F000C943F0064
:100020000C943F000C943F000C943F000C943F0054
:100030000C943F000C943F000C943F000C943F0044
:100040000C943F000C943F000C943F000C943F0034
:100050000C943F0011241FBECFE5D8E0DEBFCDBF1A
:1000600010E0A0E6B0E0ECE3FAE002C005900D92EB
:10007000A039B107D9F70E94E0010C941C050C943B
:10008000000087B1806487B986B1806886B986B17F
:10009000876086B9089597B1907E97B997B1892BFB
:1000A00087B986B1806486B93699FECF84B195B19F
:1000B00008959BB394609BBB84FF04C09BB3906185
:1000C0009BBB03C09BB39F7E9BBB85FF04C09BB3C0
:1000D00090629BBB03C09BB39F7D9BBB86FF04C00C
:1000E0009BB390649BBB03C09BB39F7B9BBB88234C
:1000F00024F49BB390689BBB03C09BB39F779BBBCF
:100100009BB398609BBBEFE9FFE03197F1F700C02C
:1001100000009BB3977F9BBBEFE9FFE03197F1F7BE
:1001200000C0000080FF04C09BB390619BBB03C074
:100130009BB39F7E9BBB81FF04C09BB390629BBB24
:1001400003C09BB39F7D9BBB82FF04C09BB39064A5
:100150009BBB03C09BB39F7B9BBB83FF04C08BB344
:1001600080688BBB03C08BB38F778BBB8BB38860EE
:100170008BBB8FE99FE00197F1F700C000008BB3C4
:10018000877F8BBBEFE9FFE03197F1F700C00000FC
:1001900008959BB39B7F9BBB84FF04C09BB390617E
:1001A0009BBB03C09BB39F7E9BBB85FF04C09BB3DF
:1001B00090629BBB03C09BB39F7D9BBB86FF04C02B
:1001C0009BB390649BBB03C09BB39F7B9BBB88236B
:1001D00024F49BB390689BBB03C09BB39F779BBBEE
:1001E0009BB398609BBBEFE9FFE03197F1F700C04C
:1001F00000009BB3977F9BBBEFE9FFE03197F1F7DE
:1002000000C0000080FF04C09BB390619BBB03C093
:100210009BB39F7E9BBB81FF04C09BB390629BBB43
:1002200003C09BB39F7D9BBB82FF04C09BB39064C4
:100230009BBB03C09BB39F7B9BBB83FF04C08BB363
:1002400080688BBB03C08BB38F778BBB8BB388600D
:100250008BBB8FE99FE00197F1F700C000008BB3E3
:10026000877F8BBBEFE9FFE03197F1F700C000001B
:1002700008958AB38C6F8ABB83E00E94C9008FE720
:100280009EE30197F1F700C0000083E00E94C900DF
:100290008FE79EE30197F1F700C0000083E00E9422
:1002A000C9008FE79EE30197F1F700C0000082E0EC
:1002B0000E94C90088E20E94C90081E00E94C90032
:1002C00086E00E94C9008CE00E94C9009FEF29EFE0
:1002D00080E0915020408040E1F700C00000089588
:1002E0000F931F93CF93DF93CDB7DEB72A970FB647
:1002F000F894DEBF0FBECDBF99234CF49095809546
:10030000709561957F4F8F4F9F4F01E001C000E0D6
:100310006115710581059105D1F480E30E945900B2
:1003200031C02AE030E040E050E00E94DB04E1E030
:10033000F0E0EC0FFD1FE10FF11D17FDFA95605D78
:100340006083622F732F842F952F1F5F01C010E0F1
:10035000611571058105910521F71150013081F476
:100360008DE20E9459000CC0E1E0F0E0EC0FFD1FAF
:10037000E10FF11D17FDFA9580810E94590011507F
:10038000112394F72A960FB6F894DEBF0FBECDBFA7
:10039000DF91CF911F910F9108950F931F93CF93EA
:1003A0008C01C0E003C00E945900CF5FF801EC0F40
:1003B000F11D80818111F7CFCF911F910F91089589
:1003C0000E94A7020E9441000E94390181B380630C
:1003D00081BB82B3886082BB82B38F7E82BB80E0A8
:1003E0000E944B008C01BC0180E090E00E94E00381
:1003F00020E030E04AE953E40E94380320E030E096
:100400004DE453E40E946E0420E030E04CE552E4F9
:100410000E94CB020E94AA03C62F6E312CF581E008
:100420000E94C90080E690E00E94CD01B80180E002
:1004300090E00E94700180EC0E94C9008BE690E081
:100440000E94CD016C2FCC0F770B880B990B0E946B
:10045000700181E790E00E94CD0160E070E0CB0187
:100460000E947001D0E066C06D3334F181E00E94DB
:10047000C90087E790E00E94CD01B80180E090E0DC
:100480000E94700180EC0E94C9008BE690E00E94FF
:10049000CD016C2FCC0F770B880B990B0E9470014C
:1004A00081E790E00E94CD0164E670E080E090E09A
:1004B0000E947001D4E63EC0062E000C770B6E51F0
:1004C0007109072E000C880B990B0E94E20320E0B3
:1004D00030E040EF51E40E94380320E030E048EC87
:1004E00052E40E946E040E94B103D62F81E00E9464
:1004F000C90083E890E00E94CD01B80180E090E05F
:100500000E94700180EC0E94C9008BE690E00E947E
:10051000CD016C2FCC0F770B880B990B0E947001CB
:1005200081E790E00E94CD016D2F70E080E090E0C7
:100530000E9470018D2F0E94BA022FEF81EE94E08D
:10054000215080409040E1F700C0000048CF81B3C7
:10055000806281BB8FB580688FBD8FB581608FBD94
:100560008FB582608FBD8EB588608EBD8EB581607F
:100570008EBD0895682F70E080E090E00E94E20355
:1005800024E13EEA43E251E40E946E040E94B1037A
:100590007BBD6ABD08955058BB27AA270E94E3027D
:1005A0000C9434040E94260438F00E942D0420F09C
:1005B00039F49F3F19F426F40C9423040EF4E095CB
:1005C000E7FB0C941D04E92F0E94450458F3BA1769
:1005D000620773078407950720F079F4A6F50C9459
:1005E00067040EF4E0950B2EBA2FA02D0B01B90174
:1005F00090010C01CA01A0011124FF27591B99F099
:10060000593F50F4503E68F11A16F040A22F232FA4
:10061000342F4427585FF3CF469537952795A795F4
:10062000F0405395C9F77EF41F16BA0B620B730B9B
:10063000840BBAF09150A1F0FF0FBB1F661F771F0C
:10064000881FC2F70EC0BA0F621F731F841F48F4C1
:10065000879577956795B795F7959E3F08F0B0CF4A
:100660009395880F08F09927EE0F97958795089531
:100670000E944C030C9434040E942D0458F00E94F4
:10068000260440F029F45F3F29F00C941D04511119
:100690000C9468040C9423040E94450468F3992385
:1006A000B1F3552391F3951B550BBB27AA2762176E
:1006B0007307840738F09F5F5F4F220F331F441F7B
:1006C000AA1FA9F335D00E2E3AF0E0E832D09150AF
:1006D0005040E695001CCAF72BD0FE2F29D0660F9C
:1006E000771F881FBB1F261737074807AB07B0E8DF
:1006F00009F0BB0B802DBF01FF2793585F4F3AF0E5
:100700009E3F510578F00C941D040C9468045F3FE3
:10071000E4F3983ED4F3869577956795B795F7956A
:100720009F5FC9F7880F911D9695879597F9089552
:10073000E1E0660F771F881FBB1F621773078407EE
:10074000BA0720F0621B730B840BBA0BEE1F88F7FD
:10075000E09508950E94B1036894B1110C94680467
:1007600008950E944D0488F09F5798F0B92F99275B
:10077000B751B0F0E1F0660F771F881F991F1AF08C
:10078000BA95C9F714C0B13091F00E946704B1E086
:1007900008950C946704672F782F8827B85F39F085
:1007A000B93FCCF3869577956795B395D9F73EF425
:1007B00090958095709561957F4F8F4F9F4F0895CD
:1007C000E89409C097FB3EF49095809570956195EB
:1007D0007F4F8F4F9F4F9923A9F0F92F96E9BB27A1
:1007E0009395F695879577956795B795F111F8CF1D
:1007F000FAF4BB0F11F460FF1BC06F5F7F4F8F4F88
:100800009F4F16C0882311F096E911C0772321F07D
:100810009EE8872F762F05C0662371F096E8862F15
:1008200070E060E02AF09A95660F771F881FDAF76C
:10083000880F9695879597F9089597F99F6780E8AF
:1008400070E060E008959FEF80EC089500240A9422
:100850001616170618060906089500240A9412169B
:100860001306140605060895092E0394000C11F4CE
:10087000882352F0BB0F40F4BF2B11F460FF04C07B
:100880006F5F7F4F8F4F9F4F089557FD9058440FD4
:10089000551F59F05F3F71F04795880F97FB991FDF
:1008A00061F09F3F79F0879508951216130614069C
:1008B000551FF2CF4695F1DF08C016161706180629
:1008C000991FF1CF86957105610508940895E89404
:1008D000BB2766277727CB0197F908950E948104EB
:1008E0000C9434040E94260438F00E942D0420F059
:1008F000952311F00C941D040C94230411240C94E2
:1009000068040E94450470F3959FC1F3950F50E071
:10091000551F629FF001729FBB27F00DB11D639FB1
:10092000AA27F00DB11DAA1F649F6627B00DA11D57
:10093000661F829F2227B00DA11D621F739FB00DFD
:10094000A11D621F839FA00D611D221F749F33276D
:10095000A00D611D231F849F600D211D822F762F06
:100960006A2F11249F5750409AF0F1F088234AF0E3
:10097000EE0FFF1FBB1F661F771F881F915050404F
:10098000A9F79E3F510580F00C941D040C94680457
:100990005F3FE4F3983ED4F3869577956795B795D6
:1009A000F795E7959F5FC1F7FE2B880F911D9695F0
:1009B000879597F90895052E97FB1EF400940E94E1
:1009C000F20457FD07D00E94FA0407FC03D04EF44E
:1009D0000C94F20450954095309521953F4F4F4F20
:1009E0005F4F089590958095709561957F4F8F4FDB
:1009F0009F4F0895A1E21A2EAA1BBB1BFD010DC03B
:100A0000AA1FBB1FEE1FFF1FA217B307E407F507BE
:100A100020F0A21BB30BE40BF50B661F771F881F9A
:100A2000991F1A9469F760957095809590959B0130
:0C0A3000AC01BD01CF010895F894FFCF88
:100A3C00436F6E64313A20763D200054656D703AF8
:100A4C00002050574D3A00436F6E64323A202076A6
:100A5C003D2000436F6E64333A2020763D20000029
:00000001FF
