S0120000636F6F6C61725F6170702E73726563F2
S11300000C942A000C943F000C943F000C943F0085
S11300100C943F000C943F000C943F000C943F0060
S11300200C943F000C943F000C943F000C943F0050
S11300300C943F000C943F000C943F000C943F0040
S11300400C943F000C943F000C943F000C943F0030
S11300500C943F0011241FBECFE5D8E0DEBFCDBF16
S113006010E0A0E6B0E0EAE4F9E002C005900D92E9
S1130070A437B107D9F70E9405020C94A3040C9489
S1130080000086B1806886B986B1876086B9089514
S113009097B1907E97B997B1892B87B986B180645F
S11300A086B93699FECF84B195B108959BB3946017
S11300B09BBB84FF04C09BB390619BBB03C09BB3F9
S11300C09F7E9BBB85FF04C09BB390629BBB03C018
S11300D09BB39F7D9BBB86FF04C09BB390649BBB7B
S11300E003C09BB39F7B9BBB882324F49BB3906882
S11300F09BBB03C09BB39F779BBB9BB398609BBB8D
S1130100EFECF7E03197F1F700C000009BB3977F65
S11301109BBBEFECF7E03197F1F700C0000080FFE4
S113012004C09BB390619BBB03C09BB39F7E9BBBEE
S113013081FF04C09BB390629BBB03C09BB39F7DB4
S11301409BBB82FF04C09BB390649BBB03C09BB367
S11301509F7B9BBB83FF04C08BB380688BBB03C0B6
S11301608BB38F778BBB8BB388608BBB8FEC97E0A3
S11301700197F1F700C000008BB3877F8BBBEFECD6
S1130180F7E03197F1F700C0000008959BB39B7F1F
S11301909BBB84FF04C09BB390619BBB03C09BB318
S11301A09F7E9BBB85FF04C09BB390629BBB03C037
S11301B09BB39F7D9BBB86FF04C09BB390649BBB9A
S11301C003C09BB39F7B9BBB882324F49BB39068A1
S11301D09BBB03C09BB39F779BBB9BB398609BBBAC
S11301E0EFECF7E03197F1F700C000009BB3977F85
S11301F09BBBEFECF7E03197F1F700C0000080FF04
S113020004C09BB390619BBB03C09BB39F7E9BBB0D
S113021081FF04C09BB390629BBB03C09BB39F7DD3
S11302209BBB82FF04C09BB390649BBB03C09BB386
S11302309F7B9BBB83FF04C08BB380688BBB03C0D5
S11302408BB38F778BBB8BB388608BBB8FEC97E0C2
S11302500197F1F700C000008BB3877F8BBBEFECF5
S1130260F7E03197F1F700C0000008958AB38C6F6E
S11302708ABB83E00E94C6008FE39FE10197F1F7F8
S113028000C0000083E00E94C6008FE39FE1019755
S1130290F1F700C0000083E00E94C6008FE39FE1F5
S11302A00197F1F700C0000082E00E94C60088E2D6
S11302B00E94C60081E00E94C60086E00E94C6003B
S11302C08CE00E94C6008FE39CE90197F1F700C01F
S11302D0000008950F931F93CF93DF93CDB7DEB73C
S11302E02A970FB6F894DEBF0FBECDBF99234CF406
S11302F090958095709561957F4F8F4F9F4F01E04A
S113030001C000E06115710581059105D1F480E318
S11303100E94560031C02AE030E040E050E00E94E4
S11303204E04E1E0F0E0EC0FFD1FE10FF11D17FDBD
S1130330FA95605D6083622F732F842F952F1F5F62
S113034001C010E0611571058105910521F7115077
S1130350013081F48DE20E9456000CC0E1E0F0E02F
S1130360EC0FFD1FE10FF11D17FDFA9580810E942E
S113037056001150112394F72A960FB6F894DEBF55
S11303800FBECDBFDF91CF911F910F9108950F93B1
S11303901F93CF938C01C0E003C00E945600CF5F2F
S11303A0F801EC0FF11D80818111F7CFCF911F91DE
S11303B00F9108950F931F93CF93DF938C01EB015B
S11303C080E80E94C60080E690E00E94C70186E8AB
S11303D00E94C600B801110F880B990B0E946A0194
S11303E080EC0E94C6008AE690E00E94C70186EC79
S11303F00E94C600BE01DD0F880B990B0E946A01A2
S1130400DF91CF911F910F9108950E946E020E9477
S113041041000E94360181B3886181BB82B3886048
S113042082BB82B38F7E82BB87B3816087BB88B374
S11304308E7F88BBC0E0D0E080E00E944800BC0111
S1130440990F880B990B0E94410324E13EEA43E291
S113045051E40E9497020E9409036B017C01C617B4
S1130460D70789F19601235231092031310598F4D7
S113047042E3429FC001439F900D11246FE070E05E
S11304800E943A04EB01E2968C2F0E94830288B307
S1130490816088BB14C0633371054CF084E60E940C
S11304A0830288B3816088BBC4E6D0E008C080E0E2
S11304B00E94830288B38E7F88BBC0E0D0E0BE0177
S11304C0C6010E94DA012FEF80E792E021508040BC
S11304D09040E1F700C00000E601AECF81B3806236
S11304E081BB1DBC1CBC8FB580688FBD8FB581607E
S11304F08FBD8FB582608FBD8EB588608EBD8EB581
S113050081608EBD0895853608F084E6682F70E01A
S113051080E090E00E94410324E13EEA43E251E49A
S11305200E94CD030E9410037BBD6ABD08950E9402
S1130530AB020C9493030E948C0358F00E94850331
S113054040F029F45F3F29F00C947C0351110C9482
S1130550C7030C9482030E94A40368F39923B1F3A4
S1130560552391F3951B550BBB27AA2762177307D5
S1130570840738F09F5F5F4F220F331F441FAA1F69
S1130580A9F335D00E2E3AF0E0E832D09150504025
S1130590E695001CCAF72BD0FE2F29D0660F771FD3
S11305A0881FBB1F261737074807AB07B0E809F0B9
S11305B0BB0B802DBF01FF2793585F4F3AF09E3F3E
S11305C0510578F00C947C030C94C7035F3FE4F36B
S11305D0983ED4F3869577956795B795F7959F5F81
S11305E0C9F7880F911D9695879597F90895E1E0CD
S11305F0660F771F881FBB1F621773078407BA072C
S113060020F0621B730B840BBA0BEE1F88F7E09586
S113061008950E9410036894B1110C94C7030895BF
S11306200E94AC0388F09F5798F0B92F9927B751CF
S1130630B0F0E1F0660F771F881F991F1AF0BA9582
S1130640C9F714C0B13091F00E94C603B1E0089517
S11306500C94C603672F782F8827B85F39F0B93F09
S1130660CCF3869577956795B395D9F73EF4909535
S11306708095709561957F4F8F4F9F4F0895E894B3
S113068009C097FB3EF490958095709561957F4FD6
S11306908F4F9F4F9923A9F0F92F96E9BB27939584
S11306A0F695879577956795B795F111F8CFFAF494
S11306B0BB0F11F460FF1BC06F5F7F4F8F4F9F4FC5
S11306C016C0882311F096E911C0772321F09EE823
S11306D0872F762F05C0662371F096E8862F70E089
S11306E060E02AF09A95660F771F881FDAF7880F63
S11306F09695879597F9089597F99F6780E870E034
S113070060E008959FEF80EC089500240A94161683
S1130710170618060906089500240A9412161306EB
S1130720140605060895092E0394000C11F4882379
S113073052F0BB0F40F4BF2B11F460FF04C06F5F95
S11307407F4F8F4F9F4F089557FD9058440F551F6B
S113075059F05F3F71F04795880F97FB991F61F03F
S11307609F3F79F087950895121613061406551FB6
S1130770F2CF4695F1DF08C0161617061806991F22
S1130780F1CF86957105610508940895E894BB2717
S113079066277727CB0197F908950E94E0030C940C
S11307A093030E94850338F00E948C0320F0952364
S11307B011F00C947C030C94820311240C94C70351
S11307C00E94A40370F3959FC1F3950F50E0551F49
S11307D0629FF001729FBB27F00DB11D639FAA2792
S11307E0F00DB11DAA1F649F6627B00DA11D661FE1
S11307F0829F2227B00DA11D621F739FB00DA11D02
S1130800621F839FA00D611D221F749F3327A00DBB
S1130810611D231F849F600D211D822F762F6A2F57
S113082011249F5750409AF0F1F088234AF0EE0FBC
S1130830FF1FBB1F661F771F881F91505040A9F7E9
S11308409E3F510580F00C947C030C94C7035F3FDA
S1130850E4F3983ED4F3869577956795B795F79525
S1130860E7959F5FC1F7FE2B880F911D969587959D
S113087097F9089597FB072E16F4009407D077FD97
S113088009D00E946D0407FC05D03EF49095819533
S11308909F4F0895709561957F4F0895052E97FB9E
S11308A01EF400940E94650457FD07D00E94810441
S11308B007FC03D04EF40C94650450954095309594
S11308C021953F4F4F4F5F4F0895909580957095B8
S11308D061957F4F8F4F9F4F0895AA1BBB1B51E11A
S11308E007C0AA1FBB1FA617B70710F0A61BB70B9C
S11308F0881F991F5A95A9F780959095BC01CD0141
S11309000895A1E21A2EAA1BBB1BFD010DC0AA1F4C
S1130910BB1FEE1FFF1FA217B307E407F50720F064
S1130920A21BB30BE40BF50B661F771F881F991FDF
S11309301A9469F760957095809590959B01AC0128
S10D0940BD01CF010895F894FFCF24
S113094A54656D703D202020200050574D203D20D5
S107095A2020200035
S9030000FC
