:100000000C942A000C943F000C943F000C943F0089
:100010000C943F000C943F000C943F000C943F0064
:100020000C943F000C943F000C943F000C943F0054
:100030000C943F000C943F000C943F000C943F0044
:100040000C943F000C943F000C943F000C943F0034
:100050000C943F0011241FBECFE5D8E0DEBFCDBF1A
:1000600011E0A0E6B0E0ECEEF9E002C005900D92E0
:10007000AA39B107D9F70E94C5040C94F4040C9472
:100080000000E199FECF9FBB8EBB6DBB8CB384603B
:100090008CBB8CB382608CBB0895E199FECF9FBB73
:1000A0008EBB8CB381608CBB8DB3089584B3806F9D
:1000B00084BB8FEF85BB089585B38F7E85BB85B3E9
:1000C000806285BB85B3806485BB85B3806885BB52
:1000D000989B5CC0999B5CC09A9B5CC09B9B5CC0DE
:1000E0008FE19EE40197F1F700C0000085B38061C5
:1000F00085BB85B38F7D85BB85B3806485BB85B3A8
:10010000806885BB989B4AC0999B4AC09A9B4AC00D
:100110009B9B4AC08FE19EE40197F1F700C000006D
:1001200085B3806185BB85B3806285BB85B38F7BDA
:1001300085BB85B3806885BB989B38C0999B38C0C8
:100140009A9B38C09B9B38C08FE19EE40197F1F7E2
:1001500000C0000085B3806185BB85B3806285BB2C
:1001600085B3806485BB85B38F7785BB989B26C09C
:10017000999B26C09A9B26C09B9B26C08FE19EE43C
:100180000197F1F700C000008FEF089587E308950D
:1001900088E3089589E308958FE2089584E308953C
:1001A00085E3089586E308958AE2089581E308953A
:1001B00082E3089583E308958DE2089583E6089528
:1001C00080E308958DE308958BE208959BB39460D6
:1001D0009BBB84FF04C09BB390619BBB03C09BB3DC
:1001E0009F7E9BBB85FF04C09BB390629BBB03C0FB
:1001F0009BB39F7D9BBB86FF04C09BB390649BBB5E
:1002000003C09BB39F7B9BBB882324F49BB3906864
:100210009BBB03C09BB39F779BBB9BB398609BBB6F
:10022000EFE9FFE03197F1F700C000009BB3977F43
:100230009BBBEFE9FFE03197F1F700C0000080FFC2
:1002400004C09BB390619BBB03C09BB39F7E9BBBD1
:1002500081FF04C09BB390629BBB03C09BB39F7D97
:100260009BBB82FF04C09BB390649BBB03C09BB34A
:100270009F7B9BBB83FF04C08BB380688BBB03C099
:100280008BB38F778BBB8BB388608BBB8FE99FE081
:100290000197F1F700C000008BB3877F8BBBEFE9BC
:1002A000FFE03197F1F700C0000008959BB39B7FFA
:1002B0009BBB84FF04C09BB390619BBB03C09BB3FB
:1002C0009F7E9BBB85FF04C09BB390629BBB03C01A
:1002D0009BB39F7D9BBB86FF04C09BB390649BBB7D
:1002E00003C09BB39F7B9BBB882324F49BB3906884
:1002F0009BBB03C09BB39F779BBB9BB398609BBB8F
:10030000EFE9FFE03197F1F700C000009BB3977F62
:100310009BBBEFE9FFE03197F1F700C0000080FFE1
:1003200004C09BB390619BBB03C09BB39F7E9BBBF0
:1003300081FF04C09BB390629BBB03C09BB39F7DB6
:100340009BBB82FF04C09BB390649BBB03C09BB369
:100350009F7B9BBB83FF04C08BB380688BBB03C0B8
:100360008BB38F778BBB8BB388608BBB8FE99FE0A0
:100370000197F1F700C000008BB3877F8BBBEFE9DB
:10038000FFE03197F1F700C0000008958AB38C6F49
:100390008ABB83E00E9456018FE79EE30197F1F745
:1003A00000C0000083E00E9456018FE79EE30197A2
:1003B000F1F700C0000083E00E9456018FE79EE342
:1003C0000197F1F700C0000082E00E94560188E228
:1003D0000E94560181E00E94560186E00E9456016B
:1003E0008CE00E9456019FEF29EF80E09150204061
:1003F0008040E1F700C0000008950F931F93CF9352
:100400008C01C0E003C00E94E600CF5FF801EC0F52
:10041000F11D80818111F7CFCF911F910F91089528
:10042000CF930E945C00C82F8F3FD9F30E945C00DD
:100430008F3FE1F78C2FCF910895CF930E945C00FE
:10044000C82F8F3FD9F30E94E6002FEF83EC99E08D
:10045000215080409040E1F700C0000080E10E9400
:1004600056018AE20E94E6000E945C008F3FE1F79D
:100470008C2FCF9108950F931F93CF93DF93CDB718
:10048000DEB760970FB6F894DEBF0FBECDBF8033E6
:10049000B1F000E010E02BC0C80144960E944D006E
:1004A000F801EE0FFF1F21E030E02C0F3D1FE20F9F
:1004B000F31F90E0918380830F5F1F4F02C000E025
:1004C00010E00430110544F315C0C8014E960E9497
:1004D0004D00F801EE0FFF1F21E030E02C0F3D1F13
:1004E000E20FF31F90E0918380830F5F1F4F043072
:1004F00011055CF300E010E010C00E941D02F8013D
:10050000EE0FFF1F21E030E02C0F3D1FE20FF31F25
:1005100090E0918780870F5F1F4F043011056CF3C7
:1005200080E090E011C0FC01EE0FFF1F21E030E001
:100530002C0F3D1FE20FF31F408551852081318133
:100540004217530731F401968430910564F380E03B
:1005500001C081E060960FB6F894DEBF0FBECDBF3C
:10056000DF91CF911F910F910895FF920F931F93E9
:10057000CF93DF9382B3816082BBF12C00E081E0F6
:100580000E94560101114DC080E690E00E94FD01DD
:1005900080EC0E94560180E790E00E94FD010E94DD
:1005A0001002182FC82FD0E081E00E9456011233AC
:1005B000B1F0133329F1113309F07DC08FE790E0DA
:1005C0000E94FD0181E00E94F0042FEF83EC99E08E
:1005D000215080409040E1F700C000006CC08DE8E1
:1005E00090E00E94FD0182E00E94F0042FEF83EC76
:1005F00099E0215080409040E1F700C000005BC0CE
:100600008BE990E00E94FD0183E00E94F0042FEF4F
:1006100083EC99E0215080409040E1F700C0000059
:100620004AC089EA90E00E94FD0180EC0E945601D8
:1006300083EB90E00E94FD010E941002182FC82F4A
:10064000D0E081E00E9456011633A9F0183321F161
:10065000153389F581EC90E00E94FD0185E00E9450
:10066000F0042FEF83EC99E0215080409040E1F7B7
:1006700000C0000020C08BEC90E00E94FD0186E0ED
:100680000E94F0042FEF83EC99E0215080409040CD
:10069000E1F700C000000FC08FED90E00E94FD0167
:1006A0002FEF83EC99E0215080409040E1F700C0AB
:1006B0000000FF24F394C433D10511F0E79729F427
:1006C000011102C001E001C000E021E0F21257CFA9
:1006D00082B38E7F82BBDF91CF911F910F91FF90EC
:1006E0000895CF93DF9382B3826082BBD0E081E034
:1006F0000E94560180E690E00E94FD0180EC0E947D
:10070000560185ED90E00E94FD010E941002C82F65
:1007100081E00E945601C233D1F018F4C13331F0A8
:1007200046C0C33329F1C433A1F141C08FE790E043
:100730000E94FD0181E00E94F0042FEF83EC99E01C
:10074000215080409040E1F700C0000030C08DE8AB
:1007500090E00E94FD0182E00E94F0042FEF83EC04
:1007600099E0215080409040E1F700C000001FC098
:100770008BE990E00E94FD0183E00E94F0042FEFDE
:1007800083EC99E0215080409040E1F700C00000E8
:100790000EC08FED90E00E94FD012FEF83EC99E0F9
:1007A000215080409040E1F700C00000D1E0D130FE
:1007B00009F09DCF82B38D7F82BBDF91CF910895E9
:1007C000CF9384E690E00E944D00843009F470C01D
:1007D00081E00E94560184EE90E00E94FD0180ECD1
:1007E0000E9456018EEE90E00E94FD012FEF87E8F7
:1007F00093E1215080409040E1F700C0000064E0A8
:1008000084E690E00E94410081E00E94560189EF59
:1008100090E00E94FD0180EC0E94560188E091E08A
:100820000E94FD010E941D02682F84E190E00E9459
:1008300041000E941D02682F85E190E00E94410066
:100840000E941D02682F86E190E00E9441000E94F4
:100850001D02682F87E190E00E94410081E00E9424
:10086000560185E191E00E94FD0180EC0E94560155
:1008700084E291E00E94FD010E941D02682F8EE13A
:1008800090E00E9441000E941D02682F8FE190E0DD
:100890000E9441000E941D02682F80E290E00E94A9
:1008A00041000E941D02682F81E290E00E944100F9
:1008B00081E00E94560181E391E00E94FD0180ECFD
:1008C0000E9456018FE391E00E94FD010E941002F8
:1008D000C82F81E00E945601C03361F480E591E0A9
:1008E0000E94FD0180EC0E9456018BE591E00E9480
:1008F000FD010DC0C13359F488E691E00E94FD016D
:1009000080EC0E9456018BE591E00E94FD018C2F46
:100910000E943B02811118C081E00E94560183E7CA
:1009200091E00E94FD012FEF83EC99E0215080407F
:100930009040E1F700C00000C03319F40E94B502F6
:1009400022C00E9471031FC081E00E94560180E80E
:1009500091E00E94FD012FEF89E698E1215080404F
:100960009040E1F700C0000082B3846082BB2FEFAB
:1009700087EA91E6215080409040E1F700C00000F6
:1009800082B38B7F82BBCF9108950E94E4040E94C2
:1009900056000E94C6018BE891E00E94FD012FEFF6
:1009A00087E893E1215080409040E1F700C00000CB
:1009B00081B3816081BB81B3826081BB81B384607C
:1009C00081BB0E94E003FDCF87B3806287BB87B302
:1009D000806187BB87B3806887BB80E58DB9089548
:0C09E0008FB9779BFECF0895F894FFCFED
:1009EC00313A526F6F6D3120323A526F6F6D320067
:1009FC00333A526F6F6D3320343A6D6F726500521B
:100A0C006F6F6D20312063686F73656E00526F6F6E
:100A1C006D20322063686F73656E00526F6F6D20AE
:100A2C00332063686F73656E00353A545620363A3E
:100A3C00414300373A6261636B20383A45786974F8
:100A4C000054562063686F73656E004143206368E1
:100A5C006F73656E00333A526F6F6D3320343A45C5
:100A6C00786974004C6F67696E20666F72006669F6
:100A7C007273742074696D65005365742041646DE4
:100A8C00696E20706173730041646D696E207061D2
:100A9C0073733A2000536574204775657374207026
:100AAC0061737300477565737420706173733A20BA
:100ABC000053656C656374206D6F64653A2000307B
:100ACC003A41646D696E2020313A47756573740044
:100ADC0041646D696E204D6F646500456E7465727E
:100AEC0020706173733A20004775657374204D6FE5
:100AFC00646500436F727265637420706173730078
:100B0C0057726F6E6720706173730048692C2049AF
:0A0B1C006D206D61737465720000B6
:00000001FF
