:100000000C942A000C943F000C943F000C943F0089
:100010000C943F000C943F000C943F000C943F0064
:100020000C943F000C943F000C943F000C943F0054
:100030000C943F000C943F000C943F000C943F0044
:100040000C943F000C943F000C943F000C943F0034
:100050000C943F0011241FBECFE5D8E0DEBFCDBF1A
:1000600010E0A0E6B0E0E2E7F8E002C005900D92F3
:10007000A236B107D9F70E949C020C9437040C9465
:10008000000084B3806F84BB8FEF85BB089585B378
:100090008F7E85BB85B3806285BB85B3806485BB5D
:1000A00085B3806885BB989B5CC0999B5CC09A9B1C
:1000B0005CC09B9B5CC08FE19EE40197F1F700C0A0
:1000C000000085B3806185BB85B38F7D85BB85B31B
:1000D000806485BB85B3806885BB989B4AC0999B2B
:1000E0004AC09A9B4AC09B9B4AC08FE19EE40197FD
:1000F000F1F700C0000085B3806185BB85B38062E5
:1001000085BB85B38F7B85BB85B3806885BB989B9A
:1001100038C0999B38C09A9B38C09B9B38C08FE1F0
:100120009EE40197F1F700C0000085B3806185BBB4
:1001300085B3806285BB85B3806485BB85B38F77CB
:1001400085BB989B26C0999B26C09A9B26C09B9BEB
:1001500026C08FE19EE40197F1F700C000008FEF09
:10016000089587E3089588E3089589E308958FE269
:10017000089584E3089585E3089586E308958AE267
:10018000089581E3089582E3089583E308958DE25D
:10019000089583E6089580E308958DE308958BE242
:1001A00008959BB394609BBB84FF04C09BB3906194
:1001B0009BBB03C09BB39F7E9BBB85FF04C09BB3CF
:1001C00090629BBB03C09BB39F7D9BBB86FF04C01B
:1001D0009BB390649BBB03C09BB39F7B9BBB88235B
:1001E00024F49BB390689BBB03C09BB39F779BBBDE
:1001F0009BB398609BBBEFE9FFE03197F1F700C03C
:1002000000009BB3977F9BBBEFE9FFE03197F1F7CD
:1002100000C0000080FF04C09BB390619BBB03C083
:100220009BB39F7E9BBB81FF04C09BB390629BBB33
:1002300003C09BB39F7D9BBB82FF04C09BB39064B4
:100240009BBB03C09BB39F7B9BBB83FF04C08BB353
:1002500080688BBB03C08BB38F778BBB8BB38860FD
:100260008BBB8FE99FE00197F1F700C000008BB3D3
:10027000877F8BBBEFE9FFE03197F1F700C000000B
:1002800008959BB39B7F9BBB84FF04C09BB390618D
:100290009BBB03C09BB39F7E9BBB85FF04C09BB3EE
:1002A00090629BBB03C09BB39F7D9BBB86FF04C03A
:1002B0009BB390649BBB03C09BB39F7B9BBB88237A
:1002C00024F49BB390689BBB03C09BB39F779BBBFD
:1002D0009BB398609BBBEFE9FFE03197F1F700C05B
:1002E00000009BB3977F9BBBEFE9FFE03197F1F7ED
:1002F00000C0000080FF04C09BB390619BBB03C0A3
:100300009BB39F7E9BBB81FF04C09BB390629BBB52
:1003100003C09BB39F7D9BBB82FF04C09BB39064D3
:100320009BBB03C09BB39F7B9BBB83FF04C08BB372
:1003300080688BBB03C08BB38F778BBB8BB388601C
:100340008BBB8FE99FE00197F1F700C000008BB3F2
:10035000877F8BBBEFE9FFE03197F1F700C000002A
:1003600008958AB38C6F8ABB83E00E9441018FE7B6
:100370009EE30197F1F700C0000083E00E94410175
:100380008FE79EE30197F1F700C0000083E00E9431
:1003900041018FE79EE30197F1F700C0000082E082
:1003A0000E94410188E20E94410181E00E944101D6
:1003B00086E00E9441018CE00E9441019FEF29EFFD
:1003C00080E0915020408040E1F700C00000089597
:1003D0000F931F93CF93DF93CDB7DEB72A970FB656
:1003E000F894DEBF0FBECDBF99234CF49095809555
:1003F000709561957F4F8F4F9F4F01E001C000E0E6
:100400006115710581059105D1F480E30E94D10049
:1004100031C02AE030E040E050E00E94FE03E1E01D
:10042000F0E0EC0FFD1FE10FF11D17FDFA95605D87
:100430006083622F732F842F952F1F5F01C010E000
:10044000611571058105910521F71150013081F485
:100450008DE20E94D1000CC0E1E0F0E0EC0FFD1F46
:10046000E10FF11D17FDFA9580810E94D100115016
:10047000112394F72A960FB6F894DEBF0FBECDBFB6
:10048000DF91CF911F910F9108950F931F93CF93F9
:100490008C01C0E003C00E94D100CF5FF801EC0FD7
:1004A000F11D80818111F7CFCF911F910F91089598
:1004B000CF930E944700C82F8F3FD9F30E94D100ED
:1004C0000E9447008F3FE1F78C2FCF910895CF9284
:1004D000DF92EF92FF920F931F93680179014B32E5
:1004E00049F018F44A32B9F01DC04D3241F04F3294
:1004F00059F018C0600F711F821F931F16C0601B38
:10050000710B820B930B11C0A90198010E94DC03AF
:10051000CA01B9010AC09B01AC01C701B6010E9422
:10052000CC0303C06FEF7FEFCB011F910F91FF90C2
:10053000EF90DF90CF900895CF93DF93CDB7DEB7E4
:10054000A0970FB6F894DEBF0FBECDBF0E94B101D9
:100550000E944100A12CB12C10E023C00E9458023F
:10056000282E80ED820D8A3000F5822D022C000CA1
:10057000990BC097F501EE0FFF1FEE0FFF1F21E053
:1005800030E02C0F3D1FE20FF31F092E000CAA0BC9
:10059000BB0B80839183A283B3831F5F3FEFA31ABA
:1005A000B30A84E0A816B104CCF2A12CB12CC12C62
:1005B000D12C7601C394412C512C320133C0FC0163
:1005C0003197EA19FB09EE0FFF1FEE0FFF1F21E025
:1005D00030E02C0F3D1FE20FF31F6081718182819B
:1005E0009381A70196010E94CC03460E571E681EF8
:1005F000791ED701C601880F991FAA1FBB1FAC0126
:10060000BD01440F551F661F771F440F551F661FFE
:10061000771F6C017D01C40ED51EE61EF71E3FEF4D
:10062000A31AB30A812F90E0A816B90644F2143039
:1006300019F40E945802282E8BE2281649F09DE2F8
:10064000291631F02AE2221619F03FE2231205C0E2
:10065000322CA12CB12C10E031C080E10E9441016C
:1006600080E690E00E94450280E10E9441010E94E4
:100670005802282EE1CF0E945802282E80ED820DCC
:100680008A3000F5822D022C000C990BC097F501E1
:10069000EE0FFF1FEE0FFF1F21E030E02C0F3D1F7C
:1006A000E20FF31F092E000CAA0BBB0B808B918B62
:1006B000A28BB38B1F5F3FEFA31AB30A84E0A81687
:1006C000B104CCF2E0E0F0E0812C912C5401839451
:1006D000C12CD12C76012FC0DC011197AE1BBF0BB2
:1006E000AA0FBB1FAA0FBB1F21E030E02C0F3D1F3C
:1006F000A20FB31F50966D917D918D919C91539750
:10070000A50194010E94CC03C60ED71EE81EF91E57
:10071000880C991CAA1CBB1CD501C401880F991F09
:10072000AA1FBB1F880F991FAA1FBB1F880E991EE7
:10073000AA1EBB1E3196812F90E0E817F90764F2DC
:10074000143019F40E945802282E3DE323120AC0E7
:1007500097018601432DC301B2010E9467020E94E6
:10076000E8010EC080E10E94410180E690E00E9415
:10077000450280E10E9441010E945802282EE5CFE7
:100780000E9447008336E1F781E00E9441010E9408
:1007900047008F3FE1F7DECEDB018F939F930E94EE
:1007A0001D04BF91AF91A29F800D911DA39F900D3D
:1007B000B29F900D11240895A1E21A2EAA1BBB1B13
:1007C000FD010DC0AA1FBB1FEE1FFF1FA217B3071D
:1007D000E407F50720F0A21BB30BE40BF50B661F33
:1007E000771F881F991F1A9469F7609570958095F7
:1007F00090959B01AC01BD01CF010895052E97FB9B
:100800001EF400940E94150457FD07D00E94DC03DB
:1008100007FC03D04EF40C94150450954095309588
:1008200021953F4F4F4F5F4F08959095809570955C
:1008300061957F4F8F4F9F4F08950E942804A59F79
:10084000900DB49F900DA49F800D911D11240895CB
:10085000A29FB001B39FC001A39F700D811D112401
:10086000911DB29F700D811D1124911D0895F89462
:02087000FFCFB8
:02087200200064
:00000001FF
