S016000043616C63756C61746F725F6170702E7372656364
S11300000C942A000C943F000C943F000C943F0085
S11300100C943F000C943F000C943F000C943F0060
S11300200C943F000C943F000C943F000C943F0050
S11300300C943F000C943F000C943F000C943F0040
S11300400C943F000C943F000C943F000C943F0030
S11300500C943F0011241FBECFE5D8E0DEBFCDBF16
S113006010E0A0E6B0E0E2EFF5E002C005900D92EA
S1130070A036B107D9F70E946C020C94F7020C94D5
S1130080000084B3806F84BB8FEF85BB089585B374
S11300908F7E85BB85B3806285BB85B3806485BB59
S11300A085B3806885BB989B5CC0999B5CC09A9B18
S11300B05CC09B9B5CC08FE19EE40197F1F700C09C
S11300C0000085B3806185BB85B38F7D85BB85B317
S11300D0806485BB85B3806885BB989B4AC0999B27
S11300E04AC09A9B4AC09B9B4AC08FE19EE40197F9
S11300F0F1F700C0000085B3806185BB85B38062E1
S113010085BB85B38F7B85BB85B3806885BB989B96
S113011038C0999B38C09A9B38C09B9B38C08FE1EC
S11301209EE40197F1F700C0000085B3806185BBB0
S113013085B3806285BB85B3806485BB85B38F77C7
S113014085BB989B26C0999B26C09A9B26C09B9BE7
S113015026C08FE19EE40197F1F700C000008FEF05
S1130160089587E3089588E3089589E308958FE265
S1130170089584E3089585E3089586E308958AE263
S1130180089581E3089582E3089583E308958DE259
S1130190089583E6089580E308958DE308958BE23E
S11301A008959BB394609BBB84FF04C09BB3906190
S11301B09BBB03C09BB39F7E9BBB85FF04C09BB3CB
S11301C090629BBB03C09BB39F7D9BBB86FF04C017
S11301D09BB390649BBB03C09BB39F7B9BBB882357
S11301E024F49BB390689BBB03C09BB39F779BBBDA
S11301F09BB398609BBBEFE9FFE03197F1F700C038
S113020000009BB3977F9BBBEFE9FFE03197F1F7C9
S113021000C0000080FF04C09BB390619BBB03C07F
S11302209BB39F7E9BBB81FF04C09BB390629BBB2F
S113023003C09BB39F7D9BBB82FF04C09BB39064B0
S11302409BBB03C09BB39F7B9BBB83FF04C08BB34F
S113025080688BBB03C08BB38F778BBB8BB38860F9
S11302608BBB8FE99FE00197F1F700C000008BB3CF
S1130270877F8BBBEFE9FFE03197F1F700C0000007
S113028008959BB39B7F9BBB84FF04C09BB3906189
S11302909BBB03C09BB39F7E9BBB85FF04C09BB3EA
S11302A090629BBB03C09BB39F7D9BBB86FF04C036
S11302B09BB390649BBB03C09BB39F7B9BBB882376
S11302C024F49BB390689BBB03C09BB39F779BBBF9
S11302D09BB398609BBBEFE9FFE03197F1F700C057
S11302E000009BB3977F9BBBEFE9FFE03197F1F7E9
S11302F000C0000080FF04C09BB390619BBB03C09F
S11303009BB39F7E9BBB81FF04C09BB390629BBB4E
S113031003C09BB39F7D9BBB82FF04C09BB39064CF
S11303209BBB03C09BB39F7B9BBB83FF04C08BB36E
S113033080688BBB03C08BB38F778BBB8BB3886018
S11303408BBB8FE99FE00197F1F700C000008BB3EE
S1130350877F8BBBEFE9FFE03197F1F700C0000026
S113036008958AB38C6F8ABB83E00E9441018FE7B2
S11303709EE30197F1F700C0000083E00E94410171
S11303808FE79EE30197F1F700C0000083E00E942D
S113039041018FE79EE30197F1F700C0000082E07E
S11303A00E94410188E20E94410181E00E944101D2
S11303B086E00E9441018CE00E9441019FEF29EFF9
S11303C080E0915020408040E1F700C00000089593
S11303D00F931F93CF93DF93CDB7DEB72A970FB652
S11303E0F894DEBF0FBECDBF99234CF49095809551
S11303F0709561957F4F8F4F9F4F01E001C000E0E2
S11304006115710581059105D1F480E30E94D10045
S113041031C02AE030E040E050E00E94B602E1E062
S1130420F0E0EC0FFD1FE10FF11D17FDFA95605D83
S11304306083622F732F842F952F1F5F01C010E0FC
S1130440611571058105910521F71150013081F481
S11304508DE20E94D1000CC0E1E0F0E0EC0FFD1F42
S1130460E10FF11D17FDFA9580810E94D100115012
S1130470112394F72A960FB6F894DEBF0FBECDBFB2
S1130480DF91CF911F910F910895CF930E94470060
S1130490C82F8F3FD9F30E94D1000E9447008F3F9D
S11304A0E1F78C2FCF9108956B3249F018F46A323A
S11304B071F011C06D3229F06F3229F00CC0840F35
S11304C00895841B0895642F0E94AA020895849FAE
S11304D0802D1124089508950E94B1010E944100C5
S11304E00E94450280538A3008F4D82F0E944502A6
S11304F08B3239F08D3239F08A3239F08F3241F44F
S113050006C0C82F05C0C82F03C0C82F01C0C82FFC
S11305100E94450280538A3008F4182F0E94450235
S11305208D3361F4412F6C2F8D2F0E945402682F5C
S1130530880F770B880B990B0E94E8010E944700F3
S11305408336E1F781E00E9441010E9447008F3F1A
S1130550E1F7C6CF991B79E004C0991F961708F0FC
S1130560961B881F7A95C9F780950895052E97FBE9
S11305701EF400940E94CD0257FD07D00E94D502BC
S113058007FC03D04EF40C94CD0250954095309561
S113059021953F4F4F4F5F4F0895909580957095EB
S11305A061957F4F8F4F9F4F0895A1E21A2EAA1B8A
S11305B0BB1BFD010DC0AA1FBB1FEE1FFF1FA2170F
S11305C0B307E407F50720F0A21BB30BE40BF50B0C
S11305D0661F771F881F991F1A9469F76095709595
S11305E0809590959B01AC01BD01CF010895F894CD
S10505F0FFCF37
S9030000FC
