:100000000C942A000C943F000C943F000C943F0089
:100010000C943F000C943F000C943F000C943F0064
:100020000C943F000C943F000C943F000C943F0054
:100030000C943F000C943F000C943F000C943F0044
:100040000C943F000C943F000C943F000C943F0034
:100050000C943F0011241FBECFE5D8E0DEBFCDBF1A
:1000600010E0A0E6B0E0E2E0F4E002C005900D92FE
:10007000A638B107D9F70E946B010C94FF010C94CC
:1000800000009BB394609BBB84FF04C09BB3906152
:100090009BBB03C09BB39F7E9BBB85FF04C09BB3F0
:1000A00090629BBB03C09BB39F7D9BBB86FF04C03C
:1000B0009BB390649BBB03C09BB39F7B9BBB88237C
:1000C00024F49BB390689BBB03C09BB39F779BBBFF
:1000D0009BB398609BBBEFE9FFE03197F1F700C05D
:1000E00000009BB3977F9BBBEFE9FFE03197F1F7EF
:1000F00000C0000080FF04C09BB390619BBB03C0A5
:100100009BB39F7E9BBB81FF04C09BB390629BBB54
:1001100003C09BB39F7D9BBB82FF04C09BB39064D5
:100120009BBB03C09BB39F7B9BBB83FF04C08BB374
:1001300080688BBB03C08BB38F778BBB8BB388601E
:100140008BBB8FE99FE00197F1F700C000008BB3F4
:10015000877F8BBBEFE9FFE03197F1F700C000002C
:1001600008959BB39B7F9BBB84FF04C09BB39061AE
:100170009BBB03C09BB39F7E9BBB85FF04C09BB30F
:1001800090629BBB03C09BB39F7D9BBB86FF04C05B
:100190009BB390649BBB03C09BB39F7B9BBB88239B
:1001A00024F49BB390689BBB03C09BB39F779BBB1E
:1001B0009BB398609BBBEFE9FFE03197F1F700C07C
:1001C00000009BB3977F9BBBEFE9FFE03197F1F70E
:1001D00000C0000080FF04C09BB390619BBB03C0C4
:1001E0009BB39F7E9BBB81FF04C09BB390629BBB74
:1001F00003C09BB39F7D9BBB82FF04C09BB39064F5
:100200009BBB03C09BB39F7B9BBB83FF04C08BB393
:1002100080688BBB03C08BB38F778BBB8BB388603D
:100220008BBB8FE99FE00197F1F700C000008BB313
:10023000877F8BBBEFE9FFE03197F1F700C000004B
:1002400008958AB38C6F8ABB83E00E94B1008FE768
:100250009EE30197F1F700C0000083E00E94B10027
:100260008FE79EE30197F1F700C0000083E00E9452
:10027000B1008FE79EE30197F1F700C0000082E034
:100280000E94B10088E20E94B10081E00E94B100AA
:1002900086E00E94B1008CE00E94B1009FEF29EF40
:1002A00080E0915020408040E1F700C000000895B8
:1002B0000F931F93CF938C01C0E003C00E944100B5
:1002C000CF5FF801EC0FF11D80818111F7CFCF9145
:1002D0001F910F9108950E94F5010E94210180E66F
:1002E00090E00E9458012FEF87E893E12150804071
:1002F0009040E1F700C0000081B3846081BB81B30E
:10030000886081BB81B3806181BB81B3806281BB26
:1003100081B3806481BB81B3806881BB81E00E942E
:10032000B1008DE690E00E94580180EC0E94B1007F
:100330008CE790E00E9458010E94FB01833041F15C
:1003400028F4813041F08230A1F0F6CF853079F188
:100350008630E1F1F1CF92B380E1892782BB83E857
:100360000E94B10082B382958170805D0E9441003D
:10037000E3CF92B380E2892782BB88E80E94B10074
:1003800082B385FB882780F9805D0E944100D4CF2D
:1003900092B380E4892782BB8DE80E94B10082B3CA
:1003A00086FB882780F9805D0E944100C5CF92B30B
:1003B00088E0892782BB88EC0E94B10082B383FB6E
:1003C000882780F9805D0E944100B6CF92B384E017
:1003D000892782BB83EC0E94B10082B382FB88270D
:1003E00080F9805D0E944100A7CF87B3806487BBFE
:1003F00080E48DB90895779BFECF8FB10895F8946E
:02040000FFCF2C
:1004020048692C20496D20736C6176650052313A3F
:10041200302052323A302052333A300041433A309F
:060422002054563A3000A0
:00000001FF
